{
  "_format": "hh-sol-artifact-1",
  "contractName": "Vending",
  "sourceName": "contracts/Vending.sol",
  "abi": [
    {
      "inputs": [],
      "name": "candies",
      "outputs": [
        {
          "internalType": "uint256",
          "name": "",
          "type": "uint256"
        }
      ],
      "stateMutability": "view",
      "type": "function"
    },
    {
      "inputs": [],
      "name": "getCandies",
      "outputs": [
        {
          "internalType": "uint256",
          "name": "",
          "type": "uint256"
        }
      ],
      "stateMutability": "view",
      "type": "function"
    },
    {
      "inputs": [],
      "name": "takeOne",
      "outputs": [],
      "stateMutability": "nonpayable",
      "type": "function"
    }
  ],
  "bytecode": "0x6080604052606460005534801561001557600080fd5b5061017f806100256000396000f3fe608060405234801561001057600080fd5b50600436106100415760003560e01c80630e93094b14610046578063713028b01461005057806378f5e0241461006e575b600080fd5b61004e61008c565b005b6100586100a3565b60405161006591906100cb565b60405180910390f35b6100766100ac565b60405161008391906100cb565b60405180910390f35b600160005461009b9190610115565b600081905550565b60008054905090565b60005481565b6000819050919050565b6100c5816100b2565b82525050565b60006020820190506100e060008301846100bc565b92915050565b7f4e487b7100000000000000000000000000000000000000000000000000000000600052601160045260246000fd5b6000610120826100b2565b915061012b836100b2565b9250828203905081811115610143576101426100e6565b5b9291505056fea264697066735822122011b806c68288312c3d13f065a4ccfeb1d1a43c134dea69006818b8fb0b71aeeb64736f6c63430008180033",
  "linkReferences": {},
  "deployedLinkReferences": {}
}